:020000040800F2
:100000006815002039020008750200087702000810
:10001000790200087B0200087D0200080000000051
:100020000000000000000000000000007F02000847
:100030008102000800000000830200082516000865
:10004000870200088702000887020008870200086C
:10005000870200088702000887020008870200085C
:10006000870200088702000887020008870200084C
:10007000870200088702000887020008870200083C
:10008000870200088702000887020008870200082C
:10009000870200088702000887020008870200081C
:1000A000870200088702000887020008870200080C
:1000B00087020008870200088702000887020008FC
:1000C00087020008870200088702000887020008EC
:1000D00087020008870200088702000887020008DC
:1000E00087020008870200088702000887020008CC
:1000F00087020008870200088702000887020008BC
:1001000087020008870200088702000887020008AB
:10011000870200088702000887020008870200089B
:10012000870200088702000887020008870200088B
:10013000870200088702000887020008870200087B
:10014000870200088702000887020008870200086B
:10015000870200088702000887020008870200085B
:10016000870200088702000887020008870200084B
:1001700087020008870200088702000800000000CC
:10018000870200088702000800F002F800F045F836
:100190000AA090E8000C82448344AAF10107DA45E2
:1001A00001D100F03AF8AFF2090EBAE80F0013F0EF
:1001B000010F18BFFB1A43F001031847481800004D
:1001C00068180000103A24BF78C878C1FAD85207DE
:1001D00024BF30C830C144BF04680C6070470000C1
:1001E0000023002400250026103A28BF78C1FBD840
:1001F000520728BF30C148BF0B607047642900F028
:10020000D580002070471FB501F0C6FB9DE80300B4
:1002100000F090F91FBD10B510BD00F085FA114631
:10022000FFF7F1FF01F076FA00F0A3FA03B4FFF74D
:10023000F2FF03BC00F0D4FA16481749174B994255
:100240003CBF50F8042B41F8042BF8D314494FF06D
:1002500000028B4238BF43F8042BFAD3DFF8440086
:10026000016841F470010160BFF34F8FBFF36F8FDE
:100270000D480047FEE7FEE7FEE7FEE7FEE7FEE784
:10028000FEE7FEE7FEE7FEE708480949094A0A4B90
:1002900070470000241A0008000000200800002019
:1002A0006815002088ED00E0890100086800002042
:1002B00068150020680500206805002070B5064616
:1002C00000F01CF9056806F10B0020F00704B442A9
:1002D0009CBF002070BD2B466A68BAB11068A0426E
:1002E00010D304F1080188423CBF5068586007D31E
:1002F0005168101941601168091B01605860146051
:10030000101D70BD13465268002AE7D121462846C9
:1003100000F0FCF80028DED170BD00000FB41CB561
:10032000074B06AA7B4469460090059800F0BDF98A
:100330000020694600F0CCF91CBC5DF814FB0000FD
:10034000A90300002DE9F0410E460446002020627A
:100350002046E168884730B3252805D0D4E901213B
:100360009047206A401CF2E7E16820460027884752
:10037000050018D0A5F14100192802D820354FF406
:1003800000673246294620462760FFF737FF40B115
:10039000012804D0F61D26F007060836D8E7361DDA
:1003A000D6E72846DAE7206ABDE8F0812DE9F0417A
:1003B0000646002410687529314616A510D0AFF303
:1003C0000080002802DA404213A507E031688A075E
:1003D00001D512A502E0490704D511A5012401E0C9
:1003E000AFF3008000210A2206F1240709E0B0FBE8
:1003F000F2FCB0FBF2F302FB1C00303078541846DC
:10040000491C0028F3D123462A463046BDE8F04176
:1004100000F0EDB8000000002D0000002B000000EF
:100420002000000010B5431E13F8014F002CFBD133
:1004300005E011F8014B002C03F8014B03D0521ECC
:10044000F7D20021197010BD40EA0103024630B511
:100450009B0710D14FF0013400E008C208C91D1BF2
:100460009D4315EAC41FF8D013F0FF0102F8011BE9
:100470000DD01B0AF8E711F8013B002B02F8013BF5
:1004800005D011F8013B002B02F8013BF3D130BD40
:1004900010B5203AC0F00B80B1E81850203AA0E81F
:1004A0001850B1E81850A0E81850BFF4F5AF5FEA53
:1004B000027C24BFB1E81850A0E8185044BF18C906
:1004C00018C0BDE810405FEA827C24BF51F8043BAD
:1004D00040F8043B08BF7047D20728BF31F8023B01
:1004E00048BF11F8012B28BF20F8023B48BF00F895
:1004F000012B7047704770477047000000487047F5
:1005000010000020704770477047704738B50446A8
:100510000A4600206946AFF30080002808BF38BDB6
:1005200002460099204600F0DDF8012038BD012088
:1005300000F0F2B8F8B5AFF30080054600200C4695
:10054000102000BF0646A819A0420DD932466946C0
:100550000020AFF30080070008BF00F0DDF800982E
:10056000A04218BF0546C419FFF7C8FF056007463B
:10057000F01D20F007004619284600F00AF8B442A2
:1005800008BFF8BDA21B31463868BDE8F84000F04E
:10059000A9B800210160C0E9011070471020704720
:1005A00070B50446051FFFF7A9FF0068002C14BFB3
:1005B000446870BD002C18BFAC423CBF2046646844
:1005C000F8D301680A18AA4218BF456003D12A6807
:1005D00005461144016028684119A1421CBF6C60A6
:1005E00070BD6168696021680844286070BD2DE9AC
:1005F000F0470D4699469246044600F124080168EA
:10060000880604D5E06921F01001216000E0012096
:10061000A84201DD471B00E00027A1697A1902EB1F
:100620000900081AA0612078C00602D42046AFF362
:100630000080002608E0D4E901211AF8060090475E
:10064000206A401C761C20624E45F4DB2078C006F0
:100650000AD52046AFF3008006E0D4E9012130201E
:100660009047206A401C2062381EA7F10107F4DC85
:1006700007E0D4E9012118F805009047206A401CE2
:100680002062281EA5F10105F3DC2046AFF30080AF
:100690002078000602D50220BDE8F0870120FBE7A4
:1006A00001694A1C02610878704700B58FB0CDE936
:1006B00001310021059105497944CDE90310114626
:1006C0006846FFF73FFE0FB000BD0000E5FFFFFFEB
:1006D0000A6802F8010B0A60704700000048704782
:1006E00008000020034640688C46002818BF884256
:1006F0003CBF03464068F8D318681844884207D0C6
:100700000CF1030020F00700001D411A521A0146A7
:10071000081D0A60FFF744BF10B500F039F8BDE8C6
:10072000104000F02FB870477546FFF7D7FFAE4670
:1007300005006946534620F00700854618B020B5ED
:10074000FFF7A2FDBDE820404FF000064FF0000784
:100750004FF000084FF0000B21F00701AC46ACE869
:10076000C009ACE8C009ACE8C009ACE8C0098D46D6
:10077000704710B50446AFF300802046BDE8104036
:10078000FFF754BD002801D000F02AB870470000E0
:1007900010B5012805D0002103A000F027F80120A2
:1007A00010BD09A1F8E7000053494752544D454D8B
:1007B0003A204F7574206F662068656170206D6502
:1007C0006D6F7279000000003A2048656170206DFD
:1007D000656D6F727920636F7272757074656400F5
:1007E00001491820ABBEFEE72600020070B50546A1
:1007F0000C460A2000E06D1C00F011F835B1287895
:100800000028F8D102E0641C00F009F814B1207847
:100810000028F8D1BDE870400A20AFF3008008B589
:1008200069468DF800000320ABBE08BD002000BF64
:100830000B49096801F004010029F9D1002006E004
:10084000002207490C3141F82020411CC8B20F2872
:10085000F6DD0349096841F00401014A116070475F
:10086000082400402F48806D00F0805028B92D48A2
:10087000806D40F080502B4988652A48806D2A4859
:10088000006800F4807060B92748006840F4807008
:100890002549086000BF2448006800F480700028E3
:1008A000F9D020489030006820F005001D49C1F8BB
:1008B00090000846D0F8900040F48030C1F89000D5
:1008C0000846D0F8900020F48030C1F8900007E08E
:1008D00014489030006840F001001249C1F89000BF
:1008E00010489030006800F002000028F0D00D4859
:1008F0009030006820F440700A49C1F89000084622
:10090000D0F8900040F48070C1F890000846806DE7
:1009100020F0805088650846806D40F4007088653E
:100920007047000000100240007000402C48006832
:1009300020F060002A4908600846006840F0400046
:1009400008600846006820F01C000860084600683F
:1009500040F0080008600846006840F004000860A5
:10096000081D006820F4E050091D08600846006872
:1009700040F4805008600846006840F40060086059
:100980000846006840F4806008600846006820F06F
:10099000700008600846006840F0400008600846A3
:1009A000006840F0200008600846006840F0100031
:1009B0000860081F006820F08000091F08600846D2
:1009C000006820F0020008600846006820F001007E
:1009D00008600846006840F00100086070470000A9
:1009E00000240040F0B50C461546002100260022E8
:1009F0000778342F53D00FDCA7F12007142F5AD2D9
:100A0000DFE807F02359595959435959282A253BFA
:100A10005938593E494A4B4C642F1FD008DCA7F186
:100A20003507052F47D2DFE807F03B3C3D3E3F004E
:100A3000B02F27D004DC6D2F13D06E2F3BD113E0E5
:100A4000B52F14D0FF2F36D122E000214CE04AF21E
:100A5000DD0149E0282147E0112145E04FF47341D1
:100A600042E04BF210213FE042F210213CE046F21E
:100A7000840139E04FF4204136E04AF2140133E0BA
:100A8000C02131E04FF46C412EE04FF433412BE0B4
:100A90004FF6DD7128E000BF00BF00BF00BF00BF00
:100AA00000BF00BF00BF00BF0778303FDFF864C061
:100AB0003CF8171018E007785B2F08DA0778402F0A
:100AC00005DD0778413FDFF850C03CF81710077884
:100AD0007B2F08DA0778602F05DD0778613FDFF8A4
:100AE00038C03CF8171000BF00BF0CB141F0020144
:100AF0000DB141F020010C26002208E041FA06F772
:100B000007F00F079F54371FFEB2571CFAB2042A92
:100B1000F4DBF0BDF0190008BC19000870B50546FB
:100B2000002407E0E3B200221146284600F050F905
:100B30006D1C641C062CF5DB70BD70B504460D46BB
:100B40001920FFF7BBFB064621463046FFF77CFC29
:100B50002946304600F004FE70BD38B530200090C4
:100B60006C4600F01FF8FFF77DFEFFF7DFFEFFF792
:100B70005DFE042300221146204600F029F90523DA
:100B800000221146204600F023F900231A46194698
:100B9000204600F01DF901231A460021204600F0EE
:100BA00017F938BD7B48C06C40F001007949C86432
:100BB0000846C06C40F00200C8640846C06C40F0B3
:100BC0000400C8640846C06C40F00800C8644FF0D8
:100BD00090400068704908404FF090410860084616
:100BE00000686E4908434FF0904108600846006A6B
:100BF00020F07F4008620846006A40F03B400862EF
:100C00000846406A664908404FF0904148620846ED
:100C1000406A644908434FF0904148626248006866
:100C20006249084060490860084600686049084316
:100C30005D4908605C482030006800F0FF205A4998
:100C4000203108600846006840F0BB100860564834
:100C5000406A4FF60F710840534948620846406A9F
:100C60005449084350494862534800685349084072
:100C70005149086008460068514908434E490860D8
:100C80004D4820300068C0F30B004B49203108600C
:100C9000084600684B4908434749203108604648E8
:100CA000406A20F00F0144484162406A40F00B0165
:100CB000414841624448006880B2434908600846A0
:100CC000006842490843404908603F4820300068B6
:100CD0003D49203108600846006808603A48406A8B
:100CE000002139484162406A40F0BB3136484162D8
:100CF0004FF09040006820F003004FF090410860F2
:100D00000846806800F0030088600846806840F06C
:100D1000030088600846406800F00100486008460B
:100D2000C06800F00200C8600846006A20F0704009
:100D300008620846006A40F0304008620846406A8F
:100D400020F070414FF090404162406A40F03041E5
:100D50004FF090404162006820F030004FF0904129
:100D600008600846006840F6FF4188434FF0904114
:100D700008600846C06840F6FC4188434FF0904147
:100D8000C8600846C06840F6A80108434FF090418B
:100D9000C860704700100240FF0FC03F00A02A80CB
:100DA00000F0FF0FBB0B00B000040048F0F0F300B0
:100DB0000A0A08AAB000BBBB000800483F00FCFFBD
:100DC00080AA020000B0BBBB000C00480000AAAA29
:100DD000F8B505460E4617461C466B463A46314660
:100DE0002846FFF7FFFD00BFFE48006800F0040042
:100DF0000028F9D1062C7DD2DFE804F00398FCFB33
:100E0000FAF9F8480C300068F7490840F5490C3108
:100E10000860F4480838C069F3490840F1490839C6
:100E2000C8610846406AF0490840EE4908394862FE
:100E30000846C06AEC490840EA490839C8629DF88A
:100E40000000C007C00E9DF80010C1F3400140EA49
:100E5000C1509DF80010C1F3800140EA81509DF817
:100E60000010C1F3C00140EAC100DE490C3109683D
:100E70000843DC490C3108609DF80100C007C00E32
:100E80009DF80110C1F3400140EAC1509DF80110E6
:100E9000C1F3800140EA81509DF80110C1F3C00107
:100EA00040EAC100CF490839C9690843CD4908392A
:100EB000C8619DF80200C007C00E9DF80210C1F382
:100EC000400140EAC1509DF80210C1F3800140EAA0
:100ED00081509DF80210C1F3C00140EAC100C14930
:100EE0000839496A0843BF49083948629DF8030038
:100EF000C00700E02EE3C00E9DF80310C1F34001CF
:100F000040EAC1509DF80310C1F3800140EA8150CE
:100F10009DF80310C1F3C00140EAC100B14908398E
:100F2000C96A0843AF490839C86214E3AD480C30B8
:100F3000006843F260018843AA490C310860A9485F
:100F40000838C06943F260018843A6490839C8617E
:100F50000846406A43F260018843A2490839486262
:100F60000846C06A43F2600188439E490839C86256
:100F70009DF80000C007400E9DF80010C1F340012D
:100F800040EA41309DF80010C1F3800140EA013091
:100F90009DF80010C1F3C00140EA411091490C31A5
:100FA000096808438F490C3108609DF80100C007AB
:100FB000400E9DF80110C1F3400140EA41309DF818
:100FC0000110C1F3800140EA01309DF80110C1F326
:100FD000C00140EA411083490839C9690843814981
:100FE0000839C8619DF80200C007400E03E028E2FE
:100FF0007CE1CAE036E09DF80210C1F3400140EA0E
:1010000041309DF80210C1F3800140EA01309DF8A3
:101010000210C1F3C00140EA411072490839496A1F
:1010200008437049083948629DF80300C007400E24
:101030009DF80310C1F3400140EA41309DF80310D0
:10104000C1F3800140EA01309DF80310C1F3C001F3
:1010500040EA411063490839C96A084361490839BF
:10106000C86278E25F480C300068604908405D491A
:101070000C3108605B480838C0695C490840594930
:101080000839C8610846406A584908405549083936
:1010900048620846C06A5549084052490839C86242
:1010A0009DF80000C007000C9DF80010C1F340013E
:1010B00040EA41709DF80010C1F3800140EA0170E0
:1010C0009DF80010C1F3C00140EA813045490C3160
:1010D0000968084343490C3108609DF80100C007C6
:1010E000000C9DF80110C1F3400140EA41709DF8E9
:1010F0000110C1F3800140EA01709DF80110C1F3B5
:10110000C00140EA813037490839C9690843354987
:101110000839C8619DF80200C007000C9DF8021054
:10112000C1F3400140EA41709DF80210C1F3800113
:1011300040EA01709DF80210C1F3C00140EA81301D
:1011400028490839496A08432649083948629DF800
:101150000300C007000C9DF80310C1F3400140EAF2
:1011600041709DF80310C1F3800140EA01709DF8C1
:101170000310C1F3C00140EA81301A490839C96A35
:10118000084318490839C862E5E116480C30006880
:1011900020F0404013490C3108601248083880693B
:1011A00020F003010F4808388161C06920F04041F8
:1011B0000C480838C161006A20F00301094808386A
:1011C0000162406A20F04041064808384162806A66
:1011D00020F00301034808388162C06A20F04041D2
:1011E000004805E008240040E7FF3FFFFF3FFFCF36
:1011F0000838C162006B20F00301DD4801639DF8EF
:101200000000C0079DF80010C1F3C00140EA8170E2
:10121000D749143109680843D549143108609DF84D
:101220000000C0F380009DF80010C1F3400140EAC7
:101230004100CF4989690843CD4988619DF8010083
:10124000C0079DF80110C1F3C00140EA8170C84990
:10125000C9690843C649C8619DF80100C0F3800010
:101260009DF80110C1F3400140EA4100C049096AFC
:101270000843BF4908629DF80200C0079DF80210AC
:10128000C1F3C00140EA8170B949496A0843B849CD
:1012900048629DF80200C0F380009DF80210C1F37F
:1012A000400140EA4100B249896A0843B049886276
:1012B0009DF80300C0079DF80310C1F3C00140EA88
:1012C0008170AB49C96A0843A949C8629DF8030007
:1012D000C0F380009DF80310C1F3400140EA4100D3
:1012E000A349096B0843A249086334E1A0481430BC
:1012F000006820F040709E49143108609C48806965
:1013000020F00C019A488161C06920F04071984832
:10131000C161006A20F00C0195480162406A20F02A
:10132000407193484162806A20F00C0190488162CC
:10133000C06A20F040718E48C162006B20F00C0141
:101340008B4801639DF80000C0F3400040069DF803
:101350000010C1F3800140EA016085491431096839
:1013600008438349143108609DF80000C007000F4E
:101370009DF80010C1F3C00140EA81007C498969F1
:1013800008437B4988619DF80100C0F34000400696
:101390009DF80110C1F3800140EA01607449C969F8
:1013A00008437349C8619DF80100C007000F9DF80C
:1013B0000110C1F3C00140EA81006D49096A084388
:1013C0006B4908629DF80200C0F3400040069DF89A
:1013D0000210C1F3800140EA01606549496A08438F
:1013E000634948629DF80200C007000F9DF8021093
:1013F000C1F3C00140EA81005D49896A08435C4944
:1014000088629DF80300C0F3400040069DF8031079
:10141000C1F3800140EA01605549C96A0843544953
:10142000C8629DF80300C007000F9DF80310C1F3C8
:10143000C00140EA81004E49096B08434C490863EA
:1014400089E04B48143000684A4908404849143143
:1014500008604748C069474908404549C86108468F
:10146000406A44490840424948620846C06A4149C6
:1014700008403F49C8629DF80000C007800B9DF8F6
:101480000010C1F3400140EA01209DF80010C1F3B3
:10149000800140EA41209DF80010C1F3C00140EAFC
:1014A00081603349143109680843314914310860B7
:1014B0009DF80100C007800B9DF80110C1F34001A9
:1014C00040EA01209DF80110C1F3800140EA41206B
:1014D0009DF80110C1F3C00140EA81602449C96947
:1014E00008432349C8619DF80200C007800B9DF89E
:1014F0000210C1F3400140EA01209DF80210C1F33F
:10150000800140EA41209DF80210C1F3C00140EA89
:1015100081601749496A0843154948629DF80300EC
:10152000C007800B9DF80310C1F3400140EA012081
:101530009DF80310C1F3800140EA41209DF803109B
:10154000C1F3C00140EA81600949C96A08430849FA
:10155000C86200E000BF00BF00F00EF80448083089
:10156000006840F00400024908310860F8BD00003E
:1015700000240040FFFCFDFB00BF2748006800F08E
:1015800004000028F9D124480838406A234908405B
:101590002149083948620846C06A204908401E4966
:1015A0000839C8621E48007800F0010030B10846D2
:1015B000C06A40F4807118480838C1621848007841
:1015C00000F0020038B114480838406A40F48071D5
:1015D0001148083841621248007800F0040038B120
:1015E0000D480838C06A40F000710B480838C162E5
:1015F0000B48007800F0080038B107480838406A06
:1016000040F000710448083841620348006840F027
:10161000040001490860704708240040FFFEFFFDF8
:101620000400002002480068401E0149086070471D
:101630000000002030B5024600204FF0E021086194
:10164000501E486148170121002804DB0B071C0EBF
:101650001B4B1C5406E00B071D0E1A4B00F00F0429
:10166000241F1D5500BF4FF0FF3000280DDB00BFC9
:1016700000BF00F01F030121994043099B0003F1C3
:10168000E023C3F8001100BF00BF00BF00204FF0EF
:10169000E02188610846006920F0040008610846DE
:1016A000006940F0040008610846006940F002004B
:1016B00008610846006940F00100086130BD000083
:1016C00000E400E018ED00E00349086000BF0249B3
:1016D00009680029FBD170470000002010B588B0D0
:1016E00004461822094901A8FEF7D2FE224608A1A5
:1016F00007A8FEF713FE032207A901A8FEF792FE32
:10170000192101A8FFF719FA08B010BDA4190008A3
:101710002564000000BF002400BF1920FEF7CEFDA5
:101720000546FFF71AFA4FF47A70FFF783FF08A116
:101730002846FEF789FE0E21284600F009F90446E6
:1017400000220221204600F057F800BFFEE700000B
:10175000507265737320746F20737461727400002B
:101760002DE9F04104460D4600271AE0A4F10608D1
:10177000002612E04046FFF7D1F908F101080948B8
:1017800000F034F87F1C4FF09040006900F0010039
:1017900010B13846BDE8F081761CE81D8642E9DBD1
:1017A00000BFE3E7400D03001FE04FF090400069E9
:1017B00000F0200008B1022070474FF0904000690F
:1017C00000F0020008B10320F6E74FF090400069F6
:1017D00000F0040008B10120EEE74FF090400069EE
:1017E00000F0080008B10020E6E7DEE7002100E095
:1017F000491C8142FCDB7047F0B589B005460E46B6
:1018000017462846E91705EB91718910A5EB810170
:101810000191012412E0611E01AA52F8211029440D
:101820006143019A01FB0240C11700EB91718910DD
:10183000A0EB810101AA42F82410641CB442EADB47
:1018400000242CE001A850F8240018B92CA0FFF7C0
:1018500065F919E001A850F82400012803D12AA055
:10186000FFF75CF910E001A850F82400022803D12A
:1018700027A0FFF753F907E001A850F82400032838
:1018800002D125A0FFF74AF94FF47A60FFF71CFF59
:1018900023A0FFF743F96420FFF716FF641CB4424E
:1018A000D0DB21A0FFF73AF900241FE0FFF77CFF0F
:1018B00001A951F82410884204D11EA0FFF72EF987
:1018C0007F1C0BE01DA0FFF729F94FF4FA60FFF72A
:1018D000FBFE02E03846FFF701FFFBE74FF47A70AA
:1018E000FFF7F2FE18A0FFF719F9641CB442DDDB24
:1018F0003A46711C0198FFF77FFF09B0F0BD000068
:101900005550202020200000524947485420000014
:10191000444F574E202000004C45465420200000E4
:1019200020202020202020002020202020202020D7
:1019300020000000474F4F44202020004F4F5053BD
:101940002120202000000000202020202020000056
:101950002DE9F04104460D4600271AE0A4F10608DF
:10196000002612E04046FFF7D9F808F101080948BF
:10197000FFF73CFF7F1C4FF09040006900F0010032
:1019800010B13846BDE8F081761CE81D8642E9DBDF
:1019900000BFE3E7400D03004FF04070E1EE100A96
:1019A0007047000047414D45204F5645522E205369
:1019B000434F5245200000000000000000FE146765
:1019C000001D1447009D009C003F00FA14000053C6
:1019D00041980019485A095A005F00FC015F01FC58
:1019E00000AF1404005BC018815AC9005800C0053C
:1019F000005F004200F5006700EA00AF00BF00464C
:101A000000FF00EF241A000800000020080000007A
:101A1000C40100082C1A000808000020601500000E
:0C1A2000E00100080000000000000000D1
:040000050800018965
:00000001FF
